{
  "contractName": "Splitter",
  "abi": [
    {
      "constant": true,
      "inputs": [],
      "name": "payer",
      "outputs": [
        {
          "name": "",
          "type": "address"
        }
      ],
      "payable": false,
      "stateMutability": "view",
      "type": "function"
    },
    {
      "constant": true,
      "inputs": [],
      "name": "splitOne",
      "outputs": [
        {
          "name": "",
          "type": "address"
        }
      ],
      "payable": false,
      "stateMutability": "view",
      "type": "function"
    },
    {
      "constant": true,
      "inputs": [],
      "name": "splitTwo",
      "outputs": [
        {
          "name": "",
          "type": "address"
        }
      ],
      "payable": false,
      "stateMutability": "view",
      "type": "function"
    },
    {
      "inputs": [
        {
          "name": "addressOne",
          "type": "address"
        },
        {
          "name": "addressTwo",
          "type": "address"
        }
      ],
      "payable": false,
      "stateMutability": "nonpayable",
      "type": "constructor"
    },
    {
      "anonymous": false,
      "inputs": [
        {
          "indexed": true,
          "name": "payer",
          "type": "address"
        },
        {
          "indexed": true,
          "name": "first",
          "type": "address"
        },
        {
          "indexed": true,
          "name": "second",
          "type": "address"
        },
        {
          "indexed": false,
          "name": "remainder",
          "type": "uint256"
        },
        {
          "indexed": false,
          "name": "amount",
          "type": "uint256"
        }
      ],
      "name": "LogSplitted",
      "type": "event"
    },
    {
      "constant": false,
      "inputs": [],
      "name": "split",
      "outputs": [],
      "payable": true,
      "stateMutability": "payable",
      "type": "function"
    }
  ],
  "bytecode": "0x608060405234801561001057600080fd5b506040516040806105fa8339810180604052810190808051906020019092919080519060200190929190505050336000806101000a81548173ffffffffffffffffffffffffffffffffffffffff021916908373ffffffffffffffffffffffffffffffffffffffff16021790555081600160006101000a81548173ffffffffffffffffffffffffffffffffffffffff021916908373ffffffffffffffffffffffffffffffffffffffff16021790555080600260006101000a81548173ffffffffffffffffffffffffffffffffffffffff021916908373ffffffffffffffffffffffffffffffffffffffff16021790555050506104ea806101106000396000f300608060405260043610610062576000357c0100000000000000000000000000000000000000000000000000000000900463ffffffff168063123119cd146100675780637452760c146100be578063a2a4f96e14610115578063f76541761461016c575b600080fd5b34801561007357600080fd5b5061007c610176565b604051808273ffffffffffffffffffffffffffffffffffffffff1673ffffffffffffffffffffffffffffffffffffffff16815260200191505060405180910390f35b3480156100ca57600080fd5b506100d361019b565b604051808273ffffffffffffffffffffffffffffffffffffffff1673ffffffffffffffffffffffffffffffffffffffff16815260200191505060405180910390f35b34801561012157600080fd5b5061012a6101c1565b604051808273ffffffffffffffffffffffffffffffffffffffff1673ffffffffffffffffffffffffffffffffffffffff16815260200191505060405180910390f35b6101746101e7565b005b6000809054906101000a900473ffffffffffffffffffffffffffffffffffffffff1681565b600160009054906101000a900473ffffffffffffffffffffffffffffffffffffffff1681565b600260009054906101000a900473ffffffffffffffffffffffffffffffffffffffff1681565b60008060009054906101000a900473ffffffffffffffffffffffffffffffffffffffff1673ffffffffffffffffffffffffffffffffffffffff163373ffffffffffffffffffffffffffffffffffffffff1614151561024157fe5b600073ffffffffffffffffffffffffffffffffffffffff16600160009054906101000a900473ffffffffffffffffffffffffffffffffffffffff1673ffffffffffffffffffffffffffffffffffffffff161415151561029f57600080fd5b600073ffffffffffffffffffffffffffffffffffffffff16600260009054906101000a900473ffffffffffffffffffffffffffffffffffffffff1673ffffffffffffffffffffffffffffffffffffffff16141515156102fd57600080fd5b6000341415151561030d57600080fd5b600260009054906101000a900473ffffffffffffffffffffffffffffffffffffffff1673ffffffffffffffffffffffffffffffffffffffff16600160009054906101000a900473ffffffffffffffffffffffffffffffffffffffff1673ffffffffffffffffffffffffffffffffffffffff161415151561038c57600080fd5b60003411151561039857fe5b6103a134610478565b9050600160009054906101000a900473ffffffffffffffffffffffffffffffffffffffff1673ffffffffffffffffffffffffffffffffffffffff166108fc829081150290604051600060405180830381858888f1935050505015801561040b573d6000803e3d6000fd5b50600260009054906101000a900473ffffffffffffffffffffffffffffffffffffffff1673ffffffffffffffffffffffffffffffffffffffff166108fc829081150290604051600060405180830381858888f19350505050158015610474573d6000803e3d6000fd5b5050565b60008060028381151561048757fe5b061415156104a35760028281151561049b57fe5b0490506104b6565b6002600183038115156104b257fe5b0490505b8090509190505600a165627a7a723058202b45bd11a396cef3d0ccb96d6ecee67982a693858d9a6c2dfe2fe10a6b60581d0029",
  "source": "pragma solidity ^0.4.23;\n\ncontract Splitter {\n    address public payer;\n    address public splitOne;\n    address public splitTwo;\n    \n    event LogSplitted(address indexed payer, address indexed first, address indexed second, uint256 remainder, uint256 amount);\n    \n\n    constructor (address addressOne, address addressTwo) public {\n        payer = msg.sender;\n        splitOne = addressOne;\n        splitTwo = addressTwo;\n    }\n    \n    modifier isAlice () {\n        assert(msg.sender == payer);\n        _;\n    }\n    \n    function splitAmount (uint amount) private pure returns (uint amountForSplit) {\n        if (amount % 2 != 0) {amountForSplit = amount/2 ;}\n        else {amountForSplit = (amount-1)/2 ;}\n        return amountForSplit;\n    }\n    \n    function split () public isAlice payable {\n\n        require(splitOne != address(0));\n        require(splitTwo != address(0));\n        require(msg.value != 0);\n        require(splitOne != splitTwo);\n\n        uint valueToSend;\n        \n        assert (msg.value > 0);\n        valueToSend = splitAmount(msg.value);\n        splitOne.transfer(valueToSend);\n        splitTwo.transfer(valueToSend);\n    }    \n}",
  "sourcePath": "/home/vmehta/DAPPS/splitter/contracts/Splitter.sol",
  "compiler": {
    "name": "solc",
    "version": "0.4.24+commit.e67f0147.Emscripten.clang"
  },
  "schemaVersion": "2.0.1",
  "updatedAt": "2018-08-10T23:05:14.848Z"
}